:100000000C942A000C9433060C9447000C9447007F
:100010000C9447000C9447000C9447000C94200764
:100020000C9447000C94FB060C94AC060C945A06F6
:100030000C9447000C945B070C9447000C94470702
:100040000C9447000C9447000C9447000C94470014
:100050000C94470011241FBECFE5D8E0DEBFCDBF12
:1000600011E0A0E6B0E0E8E7F1E102C005900D92F2
:10007000A634B107D9F721E0A6E4B1E001C01D9292
:10008000AA37B207E1F70E9449000C94BA080C9411
:1000900000000E945B010E940803FDCF0E948207BE
:1000A0000E94040481E00E9422068AE598E00E94F2
:1000B0002E060E943D080E94BE050E94AB050E94CC
:1000C000F6040E941F05089560E080E00E949A04F3
:1000D0008AE890E00E947E046BE080E00E949A042F
:1000E00080E00E94200460E081E00E949A0485E99B
:1000F00090E00E947E042FEF8DE399E42150804030
:100100009040E1F700C000000E94B50460E080E08C
:100110000E949A048DE990E00E947E0460E081E0F4
:100120000E949A0486EA90E00E947E042FEF87EAFC
:1001300091E6215080409040E1F700C000000E940D
:10014000B50460E080E00E949A0483EB90E00E9496
:100150007E0460E081E00E949A048DEB90E00E94B2
:100160007E042FEF8DE399E4215080409040E1F729
:1001700000C000000E94B504089520E040E564E05E
:100180008EE790E00E9455038FE19EE40197F1F71E
:1001900000C0000081E080934B0145E060E50E94D3
:1001A00024038FE19EE40197F1F700C000000E9454
:1001B000B50460E080E00E949A0488EC90E00E9420
:1001C0007E049FEF2DE389E4915020408040E1F7C9
:1001D00000C000000E94B5040895CF9360E080E065
:1001E0000E949A0488ED90E00E947E04809149016B
:1001F00081111FC0C0E00E946108809349018130D5
:1002000089F4EC2FF0E0E258FF4F80916101808388
:100210006C2F81E00E949A048AE20E942004CF5F42
:1002200010924901C43019F40E94BD0002C0C430CC
:1002300010F3CF91089565E080E50E943B03809321
:100240004B018FE19EE40197F1F700C0000080911F
:100250004B0181111BC0109249010E94ED001092C8
:1002600049010E94B50460E080E00E949A0488EE93
:1002700090E00E947E0460E081E00E949A0487EF93
:1002800090E00E947E040E941F050895813091F441
:1002900060E080E00E949A0488EE90E00E947E0474
:1002A00060E081E00E949A0487EF90E00E947E0463
:1002B0000E941F0508950E944E000E94BF040E94E4
:1002C00064000E941B01089510924A010E94B50427
:1002D00060E080E00E949A0480E091E00E947E0449
:1002E0008AE50E94F9042FEF8BE792E921508040C4
:1002F0009040E1F700C000000E941F0510924801E5
:100300000E941B010895CF930E94B50460E080E035
:100310000E949A0488E091E00E947E040E941F05DA
:100320001092490160E081E00E949A04C0E00E94BE
:10033000610880934901813069F4EC2FF0E0EE59B7
:10034000FE4F8091610180838AE20E942004CF5F8A
:1003500010924901C43021F481E08093480106C025
:10036000C43028F380914801813059F560E080E580
:100370000E94800390934701809346018FE19EE4A1
:100380000197F1F700C00000E0914601F0914701AC
:10039000909162018081981312C0909163018181D4
:1003A00098130DC0909164018281981308C09091B8
:1003B00065018381981303C00E94640102C00E94FA
:1003C000E301CF9108950E94B50460E080E00E94AF
:1003D0009A0483E191E00E947E042FEF8DE399E47B
:1003E000215080409040E1F700C0000080914A0118
:1003F0008F5F80934A018330B0F40E94B50460E0BF
:1004000080E00E949A048DE191E00E947E042FEF2B
:100410008DE399E4215080409040E1F700C0000056
:100420000E94830108950E94EC040E941A032FEF9A
:1004300087EA91E6215080409040E1F700C000003B
:100440000E94F1040E941F03109248010E941B01A8
:1004500010924A010895CF930E94B50460E080E0B5
:100460000E949A0487E291E00E947E041092490162
:1004700060E081E00E949A04C0E00E9461088093DD
:100480004901813069F4EC2FF0E0E258FF4F809190
:10049000610180838AE20E942004CF5F10924901AB
:1004A000C43021F481E08093480106C0C43028F3B1
:1004B00080914801813021F40E94BD000E941B01FF
:1004C000CF9108950E94B50460E080E00E949A04F4
:1004D00083E191E00E947E042FEF8DE399E42150A7
:1004E00080409040E1F700C0000080914A018F5F9A
:1004F00080934A018330B0F40E94B50460E080E04C
:100500000E949A048DE191E00E947E042FEF8DE31A
:1005100099E4215080409040E1F700C000000E9423
:10052000AA0208950E94EC040E941A032FEF87EAA2
:1005300091E6215080409040E1F700C000000E9409
:10054000F1040E941F03109248010E941B011092A7
:100550004A010895CF9360E080E50E948003909364
:100560004701809346018FE19EE40197F1F700C0B7
:1005700000000E94B50460E080E00E949A0486E3D7
:1005800091E00E947E041092490160E081E00E94A7
:100590009A04C0E00E94610880934901813069F4A7
:1005A000EC2FF0E0EE59FE4F8091610180838AE2EA
:1005B0000E942004CF5F10924901C43021F481E0F1
:1005C0008093480106C0C43028F3809148018130EF
:1005D000E9F4E0914601F091470190916201808138
:1005E000981312C090916301818198130DC090916E
:1005F00064018281981308C09091650183819813EA
:1006000003C00E942B0202C00E946202CF91089593
:100610000E94610880934901813059F48091610101
:10062000813319F40E94AA020895823311F40E94C2
:100630008301089561E085E10E942405089560E04A
:1006400085E10E94240508951F93CF93DF93C82F5F
:10065000162FD42F0E94C905812F0E94E4058D2FEB
:100660000E9403068C2F0E9403060E941F06DF9142
:10067000CF911F910895CF93DF93C82FD62F0E945B
:10068000C9058C2F0E94E4058D2F0E9403060E944D
:10069000D6058C2F0E94F3050E941106C82F0E94D8
:1006A0001F068C2FDF91CF910895EF92FF920F9349
:1006B0001F93CF93DF937C01162FD42FC22F0E945C
:1006C000C9058D2F0E94E4058C2F0E94030611237B
:1006D00071F0E7011150012F10E00F5F1F4F0E0D59
:1006E0001F1D89910E940306C017D107D1F70E94F0
:1006F0001F06DF91CF911F910F91FF90EF9008950A
:100700000F931F93CF93DF93C82FD62F0E94C90555
:100710008C2F0E94E4058D2F0E9403060E94D605AF
:100720008C2F0E94F305CCE4D1E000E511E00E949B
:1007300011068993C017D107D1F70E941F068CE4D8
:1007400091E0DF91CF911F910F910895CF93C82F22
:1007500060E081E00E94240560E082E00E942405C0
:10076000C4FB662760F983E00E942405C5FB662769
:1007700060F984E00E942405C6FB662760F985E0E5
:100780000E9424056C2F661F6627661F86E00E9464
:10079000240561E082E00E9424058FE99FE0019733
:1007A000F1F700C0000060E082E00E9424056C2F99
:1007B000617083E00E942405C1FB662760F984E034
:1007C0000E942405C2FB662760F985E00E9424058B
:1007D000C3FB662760F986E00E94240561E082E0A1
:1007E0000E9424058FE99FE00197F1F700C0000007
:1007F00060E082E00E9424058FE19EE40197F1F71A
:1008000000C00000CF91089583E30E94A60382E315
:100810000E94A60388E20E94A60381E00E94A6032C
:1008200086E00E94A6038CE00E94A60382E00E945C
:10083000A6038FE19EE40197F1F700C00000089540
:10084000CF93C82F61E081E00E94240560E082E040
:100850000E942405C4FB662760F983E00E942405FA
:10086000C5FB662760F984E00E942405C6FB662765
:1008700060F985E00E9424056C2F661F6627661FBD
:1008800086E00E94240561E082E00E9424058FE951
:100890009FE00197F1F700C0000060E082E00E9455
:1008A00024056C2F617083E00E942405C1FB66273C
:1008B00060F984E00E942405C2FB662760F985E0A8
:1008C0000E942405C3FB662760F986E00E94240588
:1008D00061E082E00E9424058FE99FE00197F1F733
:1008E00000C0000060E082E00E9424058FE19EE4E9
:1008F0000197F1F700C00000CF9108950F931F9367
:10090000CF93FC018081882359F08F01C0E00E94C1
:100910002004CF5FF801EC0FF11D80818111F7CF2A
:100920008FE19EE40197F1F700C00000CF911F9185
:100930000F910895CF93DF9300D0CDB7DEB790E845
:10094000998390EC9A83FE01E80FF11D8181860F57
:100950000E94A6038FE19EE40197F1F700C000001A
:100960000F900F90DF91CF91089581E00E94A60330
:100970008FE19EE40197F1F700C000000895EF9227
:10098000FF920F931F93CF93DF9380E40E94A603FF
:10099000C2E8D0E00F2EF2ECEF2EF0E0FF2EF02DAB
:1009A0000AC089910E942004C017D107D1F7E8013D
:1009B000E016F10621F08E01085F1F4FF2CF8FE1A4
:1009C0009EE40197F1F700C00000DF91CF911F91E5
:1009D0000F91FF90EF90089561E082E10E9424055D
:1009E000089560E082E10E94240508950E940508B0
:1009F00008958633A9F028F4823141F0843259F009
:100A00000895883491F08A35A9F0089566E082E36C
:100A10000E940F08089567E082E30E940F0808957E
:100A200068E082E30E940F08089569E082E30E9473
:100A30000F0808956AE082E30E940F08089565E0B8
:100A400082E30E940F080895982F969596959695A3
:100A50008770662309F43FC0613009F07BC0913094
:100A600099F028F09230E9F0933041F108954BB3BA
:100A700021E030E0B90102C0660F771F8A95E2F7E6
:100A8000CB01842B8BBB089548B321E030E0B90142
:100A900002C0660F771F8A95E2F7CB01842B88BBD3
:100AA000089545B321E030E0B90102C0660F771F19
:100AB0008A95E2F7CB01842B85BB089542B321E0F0
:100AC00030E0B90102C0660F771F8A95E2F7CB01CB
:100AD000842B82BB08959130A1F028F09230F9F078
:100AE000933059F108954BB321E030E0B90102C0D1
:100AF000660F771F8A95E2F7CB01809584238BBB25
:100B0000089548B321E030E0B90102C0660F771FB5
:100B10008A95E2F7CB018095842388BB089545B37D
:100B200021E030E0B90102C0660F771F8A95E2F735
:100B3000CB018095842385BB089542B321E030E04A
:100B4000B90102C0660F771F8A95E2F7CB01809545
:100B5000842382BB08958FB58E7F8FBD8FB58D7F27
:100B60008FBD8EB5877F8EBD8EB58F7E8EBD89B7CA
:100B7000846089BF8EB585608EBD089580E280B99E
:100B80000898099886B7806486BF86B7846086BF58
:100B9000089586B7806286BF84E886BF06B607FEE2
:100BA000FDCF81B1887F8830E1F7089586B78062F4
:100BB00086BF86B7846886BF06B607FEFDCF81B1C3
:100BC000887F8031E1F70895880F83B984E886BF74
:100BD00086B7806486BF06B607FEFDCF81B1887FE9
:100BE0008831E1F70895880F816083B984E886BF72
:100BF00086B7806486BF06B607FEFDCF81B1887FC9
:100C00008034E1F7089583B984E886BF86B78064AD
:100C100086BF06B607FEFDCF81B1887F8832E1F737
:100C2000089584E886BF86B7806486BF06B607FE4F
:100C3000FDCF81B1887F8035E1F783B1089584E9E4
:100C400086BF0895882331F0813039F48FB78068EA
:100C50008FBF08958FB78F778FBF089590935901F5
:100C60008093580108951F920F920FB60F9211248E
:100C70002F933F934F935F936F937F938F939F93A4
:100C8000AF93BF93EF93FF93E0915C01F0915D010F
:100C90000995FF91EF91BF91AF919F918F917F91B6
:100CA0006F915F914F913F912F910F900FBE0F90D9
:100CB0001F9018951F920F920FB60F9211242F9329
:100CC0003F934F935F936F937F938F939F93AF93D4
:100CD000BF93EF93FF938091540190915501A091A0
:100CE0005601B09157010196A11DB11D8093540189
:100CF00090935501A0935601B093570140916A011A
:100D000050916B0160916C0170916D018417950792
:100D1000A607B70781F4E0915A01F0915B010995AC
:100D200010925401109255011092560110925701E1
:100D30008091720182BFFF91EF91BF91AF919F911E
:100D40008F917F916F915F914F913F912F910F9074
:100D50000FBE0F901F9018951F920F920FB60F9213
:100D600011242F933F934F935F936F937F938F93B0
:100D70009F93AF93BF93EF93FF9380915001909116
:100D80005101A0915201B09153010196A11DB11DD5
:100D90008093500190935101A0935201B09353015D
:100DA00040916601509167016091680170916901FD
:100DB00084179507A607B70769F4E0915A01F091E7
:100DC0005B0109951092500110925101109252014D
:100DD00010925301FF91EF91BF91AF919F918F912D
:100DE0007F916F915F914F913F912F910F900FBE27
:100DF0000F901F9018951F920F920FB60F9211240B
:100E00008F939F93AF93BF9380916E0190916F01E9
:100E1000A0917001B09171010196A11DB11D809347
:100E20006E0190936F01A0937001B0937101BF9117
:100E3000AF919F918F910F900FBE0F901F901895BB
:100E40001F920F920FB60F9211242F933F934F933F
:100E50005F936F937F938F939F93AF93BF93EF9322
:100E6000FF93E0915A01F0915B010995FF91EF9199
:100E7000BF91AF919F918F917F916F915F914F91B2
:100E80003F912F910F900FBE0F901F9018951F92BA
:100E90000F920FB60F9211248F9380915F018F5F95
:100EA00080935F0181E0809360018F910F900FBE6E
:100EB0000F901F9018951F920F920FB60F9211244A
:100EC0002F933F934F935F936F937F938F939F9352
:100ED000AF93BF93EF93FF93E0915801F0915901C5
:100EE0000995FF91EF91BF91AF919F918F917F9164
:100EF0006F915F914F913F912F910F900FBE0F9087
:100F00001F901895E0E6F0E04EE750E061E070E0F9
:100F10008081982F969596959695877021812223AA
:100F200019F02130C9F16BC0913091F028F0923066
:100F3000D9F0933029F163C09AB39B0102C0220F0C
:100F4000331F8A95E2F7822F809589238ABB57C089
:100F500097B39B0102C0220F331F8A95E2F7822FBD
:100F60008095892387BB4BC094B39B0102C0220F9D
:100F7000331F8A95E2F7822F8095892384BB3FC077
:100F800091B39B0102C0220F331F8A95E2F7822F93
:100F90008095892381BB33C0913089F028F092304D
:100FA000C9F0933011F12BC02AB3DB0102C0AA0FA4
:100FB000BB1F8A95E2F7CD01822B8ABB20C027B3E5
:100FC000DB0102C0AA0FBB1F8A95E2F7CD01822B7D
:100FD00087BB15C024B3DB0102C0AA0FBB1F8A95D3
:100FE000E2F7CD01822B84BB0AC021B3DB0102C032
:100FF000AA0FBB1F8A95E2F7CD01822B81BB3296E7
:10100000E417F50709F084CF08958FB582608FBD8E
:101010008EB588618EBD8FB580688FBD0895CF93E2
:10102000C62F282F30E0322F2227330F330F40E016
:1010300050E060E074E284EF90E00E946A08215082
:10104000310937BD26BD86B597B50196C89F900179
:10105000C99F300D11243695279536952795ABE716
:10106000B4E10E9489089695879501979BBD8ABD3A
:101070008EB585608EBDCF91089580B5806880BDA6
:1010800080B58F7B80BD80B58E7F80BD80B58F7E23
:1010900080BD80B58F7D80BD80B5866880BD52984B
:1010A00080B5877F80BD579A569A539A549A87E69F
:1010B00089B908958CB18093610181E080935E01CC
:1010C000089580915E01813019F410925E010895B7
:1010D00080E00895052E97FB1EF400940E9481087D
:1010E00057FD07D00E94980807FC03D04EF40C94DB
:1010F000810850954095309521953F4F4F4F5F4F58
:10110000089590958095709561957F4F8F4F9F4F73
:101110000895A29FB001B39FC001A39F700D811DD0
:101120001124911DB29F700D811D1124911D0895F0
:10113000A1E21A2EAA1BBB1BFD010DC0AA1FBB1FDB
:10114000EE1FFF1FA217B307E407F50720F0A21B4D
:10115000B30BE40BF50B661F771F881F991F1A94BA
:1011600069F760957095809590959B01AC01BD01E4
:08117000CF010895F894FFCFB0
:101178000101020103010401050106011001110129
:10118800180019011D01120115010000000030307E
:1011980030301F1111131311111F536D6172742018
:1011A800446F6F720050726F6A65637400596F758F
:1011B80020486176650054687265652054726961DB
:1011C8006C73004D616465204279203A00416C6976
:1011D800204D616D646F680050494E20534554207E
:1011E80053554343455353004C6966652054696D14
:1011F800652050494E203A00312D536574204E65C4
:10120800772050696E3A00322D4C6F67696E3A004C
:1012180057656C636F6D6500454E544552205049C3
:101228004E3A0057726F6E672050696E005472799B
:1012380020416761696E00454E544552204E45571E
:101248002050494E3A00454E544552204F4C4420B8
:0612580050494E3A00006F
:00000001FF
